{
  "_format": "hh-sol-artifact-1",
  "contractName": "DAO",
  "sourceName": "contracts/DAO.sol",
  "abi": [
    {
      "inputs": [],
      "stateMutability": "nonpayable",
      "type": "constructor"
    },
    {
      "anonymous": false,
      "inputs": [
        {
          "indexed": true,
          "internalType": "bytes32",
          "name": "_proposalId",
          "type": "bytes32"
        },
        {
          "indexed": false,
          "internalType": "bytes32",
          "name": "_contentId",
          "type": "bytes32"
        },
        {
          "indexed": false,
          "internalType": "address",
          "name": "_owner",
          "type": "address"
        },
        {
          "indexed": false,
          "internalType": "uint256",
          "name": "_remainingDays",
          "type": "uint256"
        }
      ],
      "name": "proposalCreated",
      "type": "event"
    },
    {
      "anonymous": false,
      "inputs": [
        {
          "indexed": true,
          "internalType": "bytes32",
          "name": "_proposalId",
          "type": "bytes32"
        },
        {
          "indexed": false,
          "internalType": "bytes32",
          "name": "_contentId",
          "type": "bytes32"
        },
        {
          "indexed": false,
          "internalType": "address",
          "name": "_owner",
          "type": "address"
        },
        {
          "indexed": false,
          "internalType": "uint256",
          "name": "_finalUpVotes",
          "type": "uint256"
        },
        {
          "indexed": false,
          "internalType": "uint256",
          "name": "_finalDownVotes",
          "type": "uint256"
        }
      ],
      "name": "proposalFinished",
      "type": "event"
    },
    {
      "anonymous": false,
      "inputs": [
        {
          "indexed": true,
          "internalType": "bytes32",
          "name": "_proposalId",
          "type": "bytes32"
        },
        {
          "indexed": false,
          "internalType": "bytes32",
          "name": "_contentId",
          "type": "bytes32"
        },
        {
          "indexed": false,
          "internalType": "address",
          "name": "_owner",
          "type": "address"
        },
        {
          "indexed": false,
          "internalType": "uint256",
          "name": "_remainingDays",
          "type": "uint256"
        },
        {
          "indexed": false,
          "internalType": "uint256",
          "name": "_upVotes",
          "type": "uint256"
        },
        {
          "indexed": false,
          "internalType": "uint256",
          "name": "_downVotes",
          "type": "uint256"
        }
      ],
      "name": "proposalUpdated",
      "type": "event"
    },
    {
      "inputs": [
        {
          "internalType": "string",
          "name": "_proposalUri",
          "type": "string"
        }
      ],
      "name": "closeProposal",
      "outputs": [],
      "stateMutability": "nonpayable",
      "type": "function"
    },
    {
      "inputs": [
        {
          "internalType": "string",
          "name": "_proposalUri",
          "type": "string"
        },
        {
          "internalType": "string",
          "name": "_contentUri",
          "type": "string"
        },
        {
          "internalType": "uint256",
          "name": "_remainingDays",
          "type": "uint256"
        }
      ],
      "name": "openProposal",
      "outputs": [],
      "stateMutability": "nonpayable",
      "type": "function"
    },
    {
      "inputs": [
        {
          "internalType": "string",
          "name": "_proposalUri",
          "type": "string"
        },
        {
          "internalType": "uint256",
          "name": "_upVotes",
          "type": "uint256"
        },
        {
          "internalType": "uint256",
          "name": "_downVotes",
          "type": "uint256"
        }
      ],
      "name": "updateProposal",
      "outputs": [],
      "stateMutability": "nonpayable",
      "type": "function"
    }
  ],
  "bytecode": "0x608060405234801561001057600080fd5b506109dd806100206000396000f3fe608060405234801561001057600080fd5b50600436106100415760003560e01c806324d25d1c14610046578063a9bb2dea14610062578063fd2c6b521461007e575b600080fd5b610060600480360381019061005b919061061e565b61009a565b005b61007c600480360381019061007791906105d9565b61025e565b005b610098600480360381019061009391906106a7565b610397565b005b6000339050600086866040516020016100b492919061083c565b604051602081830303815290604052805190602001209050600085856040516020016100e192919061083c565b6040516020818303038152906040528051906020012090506000151560008084815260200190815260200160002060050160009054906101000a900460ff1615151461012c57600080fd5b8260008084815260200190815260200160002060000160006101000a81548173ffffffffffffffffffffffffffffffffffffffff021916908373ffffffffffffffffffffffffffffffffffffffff16021790555080600080848152602001908152602001600020600101819055508360008084815260200190815260200160002060020181905550600080600084815260200190815260200160002060030181905550600080600084815260200190815260200160002060040181905550600160008084815260200190815260200160002060050160006101000a81548160ff021916908315150217905550817f4c674aaf9afd182f72ce821cbf174a9493f0c43f1181bd93e0c7d7ee657c3ba982858760405161024c9392919061076d565b60405180910390a25050505050505050565b6000828260405160200161027392919061083c565b604051602081830303815290604052805190602001209050600080600083815260200190815260200160002060020154146102ad57600080fd5b6001151560008083815260200190815260200160002060050160009054906101000a900460ff161515146102e057600080fd5b807f12c9f69700a7a7e953a83c115270d84c5ceecbc3e1207ff51b82a18da8ad1bc46000808481526020019081526020016000206001015460008085815260200190815260200160002060000160009054906101000a900473ffffffffffffffffffffffffffffffffffffffff16600080868152602001908152602001600020600301546000808781526020019081526020016000206004015460405161038a94939291906107a4565b60405180910390a2505050565b600084846040516020016103ac92919061083c565b6040516020818303038152906040528051906020012090506001151560008083815260200190815260200160002060050160009054906101000a900460ff161515146103f757600080fd5b60008060008381526020019081526020016000206002015414156104245761041f858561025e565b610573565b6001600080838152602001908152602001600020600201600082825461044a91906108c7565b925050819055508260008083815260200190815260200160002060030160008282546104769190610871565b925050819055508160008083815260200190815260200160002060040160008282546104a29190610871565b92505081905550807f0f77370bbcee1eb5ccb862ca63f72ac1d18ebc5ab29a0fb83c1e3c612d9ba4856000808481526020019081526020016000206001015460008085815260200190815260200160002060000160009054906101000a900473ffffffffffffffffffffffffffffffffffffffff1660008086815260200190815260200160002060020154600080878152602001908152602001600020600301546000808881526020019081526020016000206004015460405161056a9594939291906107e9565b60405180910390a25b5050505050565b60008083601f84011261058c57600080fd5b8235905067ffffffffffffffff8111156105a557600080fd5b6020830191508360018202830111156105bd57600080fd5b9250929050565b6000813590506105d381610990565b92915050565b600080602083850312156105ec57600080fd5b600083013567ffffffffffffffff81111561060657600080fd5b6106128582860161057a565b92509250509250929050565b60008060008060006060868803121561063657600080fd5b600086013567ffffffffffffffff81111561065057600080fd5b61065c8882890161057a565b9550955050602086013567ffffffffffffffff81111561067b57600080fd5b6106878882890161057a565b9350935050604061069a888289016105c4565b9150509295509295909350565b600080600080606085870312156106bd57600080fd5b600085013567ffffffffffffffff8111156106d757600080fd5b6106e38782880161057a565b945094505060206106f6878288016105c4565b9250506040610707878288016105c4565b91505092959194509250565b61071c816108fb565b82525050565b61072b8161090d565b82525050565b600061073d8385610860565b935061074a838584610941565b6107538361097f565b840190509392505050565b61076781610937565b82525050565b60006060820190506107826000830186610722565b61078f6020830185610713565b61079c604083018461075e565b949350505050565b60006080820190506107b96000830187610722565b6107c66020830186610713565b6107d3604083018561075e565b6107e0606083018461075e565b95945050505050565b600060a0820190506107fe6000830188610722565b61080b6020830187610713565b610818604083018661075e565b610825606083018561075e565b610832608083018461075e565b9695505050505050565b60006020820190508181036000830152610857818486610731565b90509392505050565b600082825260208201905092915050565b600061087c82610937565b915061088783610937565b9250827fffffffffffffffffffffffffffffffffffffffffffffffffffffffffffffffff038211156108bc576108bb610950565b5b828201905092915050565b60006108d282610937565b91506108dd83610937565b9250828210156108f0576108ef610950565b5b828203905092915050565b600061090682610917565b9050919050565b6000819050919050565b600073ffffffffffffffffffffffffffffffffffffffff82169050919050565b6000819050919050565b82818337600083830152505050565b7f4e487b7100000000000000000000000000000000000000000000000000000000600052601160045260246000fd5b6000601f19601f8301169050919050565b61099981610937565b81146109a457600080fd5b5056fea26469706673582212204e8156b0e44975052472ee9bc1ad6fccdab95a6f7234e87e40c34fcf21559adf64736f6c63430008040033",
  "linkReferences": {},
  "deployedLinkReferences": {}
}