{
  "_format": "hh-sol-artifact-1",
  "contractName": "DAO",
  "sourceName": "contracts/DAO.sol",
  "abi": [
    {
      "inputs": [],
      "stateMutability": "nonpayable",
      "type": "constructor"
    },
    {
      "anonymous": false,
      "inputs": [
        {
          "indexed": true,
          "internalType": "bytes32",
          "name": "_documentId",
          "type": "bytes32"
        },
        {
          "indexed": false,
          "internalType": "address",
          "name": "_documentOwner",
          "type": "address"
        },
        {
          "indexed": false,
          "internalType": "uint256",
          "name": "_version",
          "type": "uint256"
        }
      ],
      "name": "documentCreated",
      "type": "event"
    },
    {
      "anonymous": false,
      "inputs": [
        {
          "indexed": true,
          "internalType": "bytes32",
          "name": "_documentId",
          "type": "bytes32"
        },
        {
          "indexed": false,
          "internalType": "address",
          "name": "_documentOwner",
          "type": "address"
        },
        {
          "indexed": false,
          "internalType": "uint256",
          "name": "_version",
          "type": "uint256"
        }
      ],
      "name": "documentUpdated",
      "type": "event"
    },
    {
      "anonymous": false,
      "inputs": [
        {
          "indexed": true,
          "internalType": "bytes32",
          "name": "_proposalId",
          "type": "bytes32"
        },
        {
          "indexed": false,
          "internalType": "bytes32",
          "name": "_contentId",
          "type": "bytes32"
        },
        {
          "indexed": false,
          "internalType": "address",
          "name": "_proposalOwner",
          "type": "address"
        },
        {
          "indexed": false,
          "internalType": "uint256",
          "name": "_remainingDays",
          "type": "uint256"
        }
      ],
      "name": "proposalCreated",
      "type": "event"
    },
    {
      "anonymous": false,
      "inputs": [
        {
          "indexed": true,
          "internalType": "bytes32",
          "name": "_proposalId",
          "type": "bytes32"
        },
        {
          "indexed": false,
          "internalType": "bytes32",
          "name": "_contentId",
          "type": "bytes32"
        },
        {
          "indexed": false,
          "internalType": "address",
          "name": "_proposalOwner",
          "type": "address"
        },
        {
          "indexed": false,
          "internalType": "uint256",
          "name": "_finalUpVotes",
          "type": "uint256"
        },
        {
          "indexed": false,
          "internalType": "uint256",
          "name": "_finalDownVotes",
          "type": "uint256"
        }
      ],
      "name": "proposalFinished",
      "type": "event"
    },
    {
      "anonymous": false,
      "inputs": [
        {
          "indexed": true,
          "internalType": "bytes32",
          "name": "_proposalId",
          "type": "bytes32"
        },
        {
          "indexed": false,
          "internalType": "bytes32",
          "name": "_contentId",
          "type": "bytes32"
        },
        {
          "indexed": false,
          "internalType": "address",
          "name": "_proposalOwner",
          "type": "address"
        },
        {
          "indexed": false,
          "internalType": "uint256",
          "name": "_remainingDays",
          "type": "uint256"
        },
        {
          "indexed": false,
          "internalType": "uint256",
          "name": "_upVotes",
          "type": "uint256"
        },
        {
          "indexed": false,
          "internalType": "uint256",
          "name": "_downVotes",
          "type": "uint256"
        }
      ],
      "name": "proposalInfo",
      "type": "event"
    },
    {
      "inputs": [
        {
          "internalType": "string",
          "name": "_proposalUri",
          "type": "string"
        }
      ],
      "name": "closeProposal",
      "outputs": [],
      "stateMutability": "nonpayable",
      "type": "function"
    },
    {
      "inputs": [
        {
          "internalType": "string",
          "name": "_documentUri",
          "type": "string"
        },
        {
          "internalType": "string",
          "name": "_contentUri",
          "type": "string"
        }
      ],
      "name": "createDocument",
      "outputs": [],
      "stateMutability": "nonpayable",
      "type": "function"
    },
    {
      "inputs": [
        {
          "internalType": "string",
          "name": "_proposalUri",
          "type": "string"
        }
      ],
      "name": "forceClose",
      "outputs": [],
      "stateMutability": "nonpayable",
      "type": "function"
    },
    {
      "inputs": [
        {
          "internalType": "string",
          "name": "_proposalUri",
          "type": "string"
        },
        {
          "internalType": "string",
          "name": "_contentUri",
          "type": "string"
        },
        {
          "internalType": "uint256",
          "name": "_remainingDays",
          "type": "uint256"
        }
      ],
      "name": "openProposal",
      "outputs": [],
      "stateMutability": "nonpayable",
      "type": "function"
    },
    {
      "inputs": [
        {
          "internalType": "string",
          "name": "_documentUri",
          "type": "string"
        }
      ],
      "name": "updateDocument",
      "outputs": [],
      "stateMutability": "nonpayable",
      "type": "function"
    },
    {
      "inputs": [
        {
          "internalType": "string",
          "name": "_proposalUri",
          "type": "string"
        },
        {
          "internalType": "uint256",
          "name": "_upVotes",
          "type": "uint256"
        },
        {
          "internalType": "uint256",
          "name": "_downVotes",
          "type": "uint256"
        }
      ],
      "name": "updateProposal",
      "outputs": [],
      "stateMutability": "nonpayable",
      "type": "function"
    },
    {
      "inputs": [
        {
          "internalType": "string",
          "name": "_proposalUri",
          "type": "string"
        }
      ],
      "name": "viewProposalInformation",
      "outputs": [],
      "stateMutability": "nonpayable",
      "type": "function"
    },
    {
      "inputs": [
        {
          "internalType": "string",
          "name": "_proposalUri",
          "type": "string"
        },
        {
          "internalType": "bool",
          "name": "isUpVotes",
          "type": "bool"
        }
      ],
      "name": "voteProposal",
      "outputs": [],
      "stateMutability": "nonpayable",
      "type": "function"
    }
  ],
  "bytecode": "0x608060405234801561001057600080fd5b50611280806100206000396000f3fe608060405234801561001057600080fd5b50600436106100885760003560e01c806393ebc4c81161005b57806393ebc4c8146100fd578063a9bb2dea14610119578063fae5537d14610135578063fd2c6b521461015157610088565b806324d25d1c1461008d57806334dc6aa8146100a9578063492cedb2146100c557806357252386146100e1575b600080fd5b6100a760048036038101906100a29190610e2b565b61016d565b005b6100c360048036038101906100be9190610d19565b610337565b005b6100df60048036038101906100da9190610d5e565b610462565b005b6100fb60048036038101906100f69190610d19565b6105fd565b005b61011760048036038101906101129190610db6565b610689565b005b610133600480360381019061012e9190610d19565b610817565b005b61014f600480360381019061014a9190610d19565b610985565b005b61016b60048036038101906101669190610eb4565b610ab9565b005b600085856040516020016101829291906110aa565b604051602081830303815290604052805190602001209050600084846040516020016101af9291906110aa565b6040516020818303038152906040528051906020012090506000339050600015156001600085815260200190815260200160002060050160009054906101000a900460ff1615151461020057600080fd5b816001600085815260200190815260200160002060000181905550806001600085815260200190815260200160002060010160006101000a81548173ffffffffffffffffffffffffffffffffffffffff021916908373ffffffffffffffffffffffffffffffffffffffff1602179055508360016000858152602001908152602001600020600201819055506000600160008581526020019081526020016000206003018190555060006001600085815260200190815260200160002060040181905550600180600085815260200190815260200160002060050160006101000a81548160ff021916908315150217905550827f4c674aaf9afd182f72ce821cbf174a9493f0c43f1181bd93e0c7d7ee657c3ba983838760405161032593929190610fdb565b60405180910390a25050505050505050565b6000828260405160200161034c9291906110aa565b6040516020818303038152906040528051906020012090506001151560008083815260200190815260200160002060030160009054906101000a900460ff1615151461039757600080fd5b600160008083815260200190815260200160002060020160008282546103bd91906110df565b92505081905550600080828152602001908152602001600020600001547fe15335496cb6f5b595519034ab65939ed2ce2a99699cf88afdf84302b92f128660008084815260200190815260200160002060010160009054906101000a900473ffffffffffffffffffffffffffffffffffffffff1660008085815260200190815260200160002060020154604051610455929190610fb2565b60405180910390a2505050565b600083836040516020016104779291906110aa565b604051602081830303815290604052805190602001209050600115156001600083815260200190815260200160002060050160009054906101000a900460ff161515146104c357600080fd5b81156104fb57600180600083815260200190815260200160002060030160008282546104ef91906110df565b92505081905550610529565b6001806000838152602001908152602001600020600401600082825461052191906110df565b925050819055505b807f20b001df04f602d922b6cd273995996ad5796eeeb24995d076b5c52228c255b360016000848152602001908152602001600020600001546001600085815260200190815260200160002060010160009054906101000a900473ffffffffffffffffffffffffffffffffffffffff166001600086815260200190815260200160002060020154600160008781526020019081526020016000206003015460016000888152602001908152602001600020600401546040516105ef959493929190611057565b60405180910390a250505050565b600082826040516020016106129291906110aa565b604051602081830303815290604052805190602001209050600115156001600083815260200190815260200160002060050160009054906101000a900460ff1615151461065e57600080fd5b600060016000838152602001908152602001600020600201819055506106848383610817565b505050565b6000848460405160200161069e9291906110aa565b604051602081830303815290604052805190602001209050600083836040516020016106cb9291906110aa565b6040516020818303038152906040528051906020012090506000339050600015156001600085815260200190815260200160002060050160009054906101000a900460ff1615151461071c57600080fd5b81600080858152602001908152602001600020600001819055508060008085815260200190815260200160002060010160006101000a81548173ffffffffffffffffffffffffffffffffffffffff021916908373ffffffffffffffffffffffffffffffffffffffff160217905550600080600085815260200190815260200160002060020181905550600160008085815260200190815260200160002060030160006101000a81548160ff021916908315150217905550817f7a04d71786f15d50123c438068b20585c740f604161e021c507acd774a8d1e61826000604051610806929190610f89565b60405180910390a250505050505050565b6000828260405160200161082c9291906110aa565b604051602081830303815290604052805190602001209050600060016000838152602001908152602001600020600201541461086757600080fd5b600115156001600083815260200190815260200160002060050160009054906101000a900460ff1615151461089b57600080fd5b60006001600083815260200190815260200160002060050160006101000a81548160ff021916908315150217905550807f12c9f69700a7a7e953a83c115270d84c5ceecbc3e1207ff51b82a18da8ad1bc460016000848152602001908152602001600020600001546001600085815260200190815260200160002060010160009054906101000a900473ffffffffffffffffffffffffffffffffffffffff16600160008681526020019081526020016000206003015460016000878152602001908152602001600020600401546040516109789493929190611012565b60405180910390a2505050565b6000828260405160200161099a9291906110aa565b604051602081830303815290604052805190602001209050600115156001600083815260200190815260200160002060050160009054906101000a900460ff161515146109e657600080fd5b807f20b001df04f602d922b6cd273995996ad5796eeeb24995d076b5c52228c255b360016000848152602001908152602001600020600001546001600085815260200190815260200160002060010160009054906101000a900473ffffffffffffffffffffffffffffffffffffffff16600160008681526020019081526020016000206002015460016000878152602001908152602001600020600301546001600088815260200190815260200160002060040154604051610aac959493929190611057565b60405180910390a2505050565b60008484604051602001610ace9291906110aa565b604051602081830303815290604052805190602001209050600115156001600083815260200190815260200160002060050160009054906101000a900460ff16151514610b1a57600080fd5b600060016000838152602001908152602001600020600201541415610b4857610b438585610817565b610c9e565b60018060008381526020019081526020016000206002016000828254610b6e9190611135565b9250508190555082600160008381526020019081526020016000206003016000828254610b9b91906110df565b9250508190555081600160008381526020019081526020016000206004016000828254610bc891906110df565b92505081905550807f20b001df04f602d922b6cd273995996ad5796eeeb24995d076b5c52228c255b360016000848152602001908152602001600020600001546001600085815260200190815260200160002060010160009054906101000a900473ffffffffffffffffffffffffffffffffffffffff16600160008681526020019081526020016000206002015460016000878152602001908152602001600020600301546001600088815260200190815260200160002060040154604051610c95959493929190611057565b60405180910390a25b5050505050565b600081359050610cb48161121c565b92915050565b60008083601f840112610ccc57600080fd5b8235905067ffffffffffffffff811115610ce557600080fd5b602083019150836001820283011115610cfd57600080fd5b9250929050565b600081359050610d1381611233565b92915050565b60008060208385031215610d2c57600080fd5b600083013567ffffffffffffffff811115610d4657600080fd5b610d5285828601610cba565b92509250509250929050565b600080600060408486031215610d7357600080fd5b600084013567ffffffffffffffff811115610d8d57600080fd5b610d9986828701610cba565b93509350506020610dac86828701610ca5565b9150509250925092565b60008060008060408587031215610dcc57600080fd5b600085013567ffffffffffffffff811115610de657600080fd5b610df287828801610cba565b9450945050602085013567ffffffffffffffff811115610e1157600080fd5b610e1d87828801610cba565b925092505092959194509250565b600080600080600060608688031215610e4357600080fd5b600086013567ffffffffffffffff811115610e5d57600080fd5b610e6988828901610cba565b9550955050602086013567ffffffffffffffff811115610e8857600080fd5b610e9488828901610cba565b93509350506040610ea788828901610d04565b9150509295509295909350565b60008060008060608587031215610eca57600080fd5b600085013567ffffffffffffffff811115610ee457600080fd5b610ef087828801610cba565b94509450506020610f0387828801610d04565b9250506040610f1487828801610d04565b91505092959194509250565b610f2981611169565b82525050565b610f3881611187565b82525050565b610f47816111bb565b82525050565b6000610f5983856110ce565b9350610f668385846111cd565b610f6f8361120b565b840190509392505050565b610f83816111b1565b82525050565b6000604082019050610f9e6000830185610f20565b610fab6020830184610f3e565b9392505050565b6000604082019050610fc76000830185610f20565b610fd46020830184610f7a565b9392505050565b6000606082019050610ff06000830186610f2f565b610ffd6020830185610f20565b61100a6040830184610f7a565b949350505050565b60006080820190506110276000830187610f2f565b6110346020830186610f20565b6110416040830185610f7a565b61104e6060830184610f7a565b95945050505050565b600060a08201905061106c6000830188610f2f565b6110796020830187610f20565b6110866040830186610f7a565b6110936060830185610f7a565b6110a06080830184610f7a565b9695505050505050565b600060208201905081810360008301526110c5818486610f4d565b90509392505050565b600082825260208201905092915050565b60006110ea826111b1565b91506110f5836111b1565b9250827fffffffffffffffffffffffffffffffffffffffffffffffffffffffffffffffff0382111561112a576111296111dc565b5b828201905092915050565b6000611140826111b1565b915061114b836111b1565b92508282101561115e5761115d6111dc565b5b828203905092915050565b600061117482611191565b9050919050565b60008115159050919050565b6000819050919050565b600073ffffffffffffffffffffffffffffffffffffffff82169050919050565b6000819050919050565b60006111c6826111b1565b9050919050565b82818337600083830152505050565b7f4e487b7100000000000000000000000000000000000000000000000000000000600052601160045260246000fd5b6000601f19601f8301169050919050565b6112258161117b565b811461123057600080fd5b50565b61123c816111b1565b811461124757600080fd5b5056fea264697066735822122014790cc7739148a9ee2441370ec45e41c5f58d7f25f56aaceb195ce97fae8bad64736f6c63430008040033",
  "linkReferences": {},
  "deployedLinkReferences": {}
}