{
  "_format": "hh-sol-artifact-1",
  "contractName": "DAO",
  "sourceName": "contracts/DAO.sol",
  "abi": [
    {
      "inputs": [],
      "stateMutability": "nonpayable",
      "type": "constructor"
    },
    {
      "anonymous": false,
      "inputs": [
        {
          "indexed": true,
          "internalType": "bytes32",
          "name": "_documentId",
          "type": "bytes32"
        },
        {
          "indexed": false,
          "internalType": "address",
          "name": "_documentOwner",
          "type": "address"
        },
        {
          "indexed": false,
          "internalType": "uint256",
          "name": "_version",
          "type": "uint256"
        }
      ],
      "name": "documentCreated",
      "type": "event"
    },
    {
      "anonymous": false,
      "inputs": [
        {
          "indexed": true,
          "internalType": "bytes32",
          "name": "_documentId",
          "type": "bytes32"
        },
        {
          "indexed": false,
          "internalType": "address",
          "name": "_documentOwner",
          "type": "address"
        },
        {
          "indexed": false,
          "internalType": "uint256",
          "name": "_version",
          "type": "uint256"
        }
      ],
      "name": "documentUpdated",
      "type": "event"
    },
    {
      "anonymous": false,
      "inputs": [
        {
          "indexed": true,
          "internalType": "bytes32",
          "name": "_proposalId",
          "type": "bytes32"
        },
        {
          "indexed": false,
          "internalType": "bytes32",
          "name": "_contentId",
          "type": "bytes32"
        },
        {
          "indexed": false,
          "internalType": "address",
          "name": "_proposalOwner",
          "type": "address"
        },
        {
          "indexed": false,
          "internalType": "uint256",
          "name": "_remainingDays",
          "type": "uint256"
        }
      ],
      "name": "proposalCreated",
      "type": "event"
    },
    {
      "anonymous": false,
      "inputs": [
        {
          "indexed": true,
          "internalType": "bytes32",
          "name": "_proposalId",
          "type": "bytes32"
        },
        {
          "indexed": false,
          "internalType": "bytes32",
          "name": "_contentId",
          "type": "bytes32"
        },
        {
          "indexed": false,
          "internalType": "address",
          "name": "_proposalOwner",
          "type": "address"
        },
        {
          "indexed": false,
          "internalType": "uint256",
          "name": "_finalUpVotes",
          "type": "uint256"
        },
        {
          "indexed": false,
          "internalType": "uint256",
          "name": "_finalDownVotes",
          "type": "uint256"
        }
      ],
      "name": "proposalFinished",
      "type": "event"
    },
    {
      "anonymous": false,
      "inputs": [
        {
          "indexed": true,
          "internalType": "bytes32",
          "name": "_proposalId",
          "type": "bytes32"
        },
        {
          "indexed": false,
          "internalType": "bytes32",
          "name": "_contentId",
          "type": "bytes32"
        },
        {
          "indexed": false,
          "internalType": "address",
          "name": "_proposalOwner",
          "type": "address"
        },
        {
          "indexed": false,
          "internalType": "uint256",
          "name": "_remainingDays",
          "type": "uint256"
        },
        {
          "indexed": false,
          "internalType": "uint256",
          "name": "_upVotes",
          "type": "uint256"
        },
        {
          "indexed": false,
          "internalType": "uint256",
          "name": "_downVotes",
          "type": "uint256"
        }
      ],
      "name": "proposalInfo",
      "type": "event"
    },
    {
      "inputs": [
        {
          "internalType": "string",
          "name": "_proposalUri",
          "type": "string"
        }
      ],
      "name": "closeProposal",
      "outputs": [],
      "stateMutability": "nonpayable",
      "type": "function"
    },
    {
      "inputs": [
        {
          "internalType": "string",
          "name": "_documentUri",
          "type": "string"
        },
        {
          "internalType": "string",
          "name": "_contentUri",
          "type": "string"
        }
      ],
      "name": "createDocument",
      "outputs": [],
      "stateMutability": "nonpayable",
      "type": "function"
    },
    {
      "inputs": [
        {
          "internalType": "string",
          "name": "_proposalUri",
          "type": "string"
        }
      ],
      "name": "forceClose",
      "outputs": [],
      "stateMutability": "nonpayable",
      "type": "function"
    },
    {
      "inputs": [
        {
          "internalType": "string",
          "name": "_proposalUri",
          "type": "string"
        },
        {
          "internalType": "string",
          "name": "_contentUri",
          "type": "string"
        },
        {
          "internalType": "uint256",
          "name": "_remainingDays",
          "type": "uint256"
        }
      ],
      "name": "openProposal",
      "outputs": [],
      "stateMutability": "nonpayable",
      "type": "function"
    },
    {
      "inputs": [
        {
          "internalType": "string",
          "name": "_documentUri",
          "type": "string"
        }
      ],
      "name": "updateDocument",
      "outputs": [],
      "stateMutability": "nonpayable",
      "type": "function"
    },
    {
      "inputs": [
        {
          "internalType": "string",
          "name": "_proposalUri",
          "type": "string"
        },
        {
          "internalType": "uint256",
          "name": "_upVotes",
          "type": "uint256"
        },
        {
          "internalType": "uint256",
          "name": "_downVotes",
          "type": "uint256"
        }
      ],
      "name": "updateProposal",
      "outputs": [],
      "stateMutability": "nonpayable",
      "type": "function"
    },
    {
      "inputs": [
        {
          "internalType": "string",
          "name": "_proposalUri",
          "type": "string"
        }
      ],
      "name": "viewProposalInformation",
      "outputs": [
        {
          "internalType": "bytes32",
          "name": "",
          "type": "bytes32"
        },
        {
          "internalType": "bytes32",
          "name": "",
          "type": "bytes32"
        },
        {
          "internalType": "address",
          "name": "",
          "type": "address"
        },
        {
          "internalType": "uint256",
          "name": "",
          "type": "uint256"
        },
        {
          "internalType": "uint256",
          "name": "",
          "type": "uint256"
        },
        {
          "internalType": "uint256",
          "name": "",
          "type": "uint256"
        }
      ],
      "stateMutability": "view",
      "type": "function"
    },
    {
      "inputs": [
        {
          "internalType": "string",
          "name": "_proposalUri",
          "type": "string"
        },
        {
          "internalType": "bool",
          "name": "isUpVotes",
          "type": "bool"
        }
      ],
      "name": "voteProposal",
      "outputs": [],
      "stateMutability": "nonpayable",
      "type": "function"
    }
  ],
  "bytecode": "0x608060405234801561001057600080fd5b506112db806100206000396000f3fe608060405234801561001057600080fd5b50600436106100885760003560e01c806393ebc4c81161005b57806393ebc4c8146100fd578063a9bb2dea14610119578063fae5537d14610135578063fd2c6b521461016a57610088565b806324d25d1c1461008d57806334dc6aa8146100a9578063492cedb2146100c557806357252386146100e1575b600080fd5b6100a760048036038101906100a29190610e25565b610186565b005b6100c360048036038101906100be9190610d13565b610350565b005b6100df60048036038101906100da9190610d58565b61047b565b005b6100fb60048036038101906100f69190610d13565b610616565b005b61011760048036038101906101129190610db0565b6106a2565b005b610133600480360381019061012e9190610d13565b610830565b005b61014f600480360381019061014a9190610d13565b61099e565b604051610161969594939291906110a4565b60405180910390f35b610184600480360381019061017f9190610eae565b610ab3565b005b6000858560405160200161019b929190611105565b604051602081830303815290604052805190602001209050600084846040516020016101c8929190611105565b6040516020818303038152906040528051906020012090506000339050600015156001600085815260200190815260200160002060050160009054906101000a900460ff1615151461021957600080fd5b816001600085815260200190815260200160002060000181905550806001600085815260200190815260200160002060010160006101000a81548173ffffffffffffffffffffffffffffffffffffffff021916908373ffffffffffffffffffffffffffffffffffffffff1602179055508360016000858152602001908152602001600020600201819055506000600160008581526020019081526020016000206003018190555060006001600085815260200190815260200160002060040181905550600180600085815260200190815260200160002060050160006101000a81548160ff021916908315150217905550827f4c674aaf9afd182f72ce821cbf174a9493f0c43f1181bd93e0c7d7ee657c3ba983838760405161033e93929190610fd5565b60405180910390a25050505050505050565b60008282604051602001610365929190611105565b6040516020818303038152906040528051906020012090506001151560008083815260200190815260200160002060030160009054906101000a900460ff161515146103b057600080fd5b600160008083815260200190815260200160002060020160008282546103d6919061113a565b92505081905550600080828152602001908152602001600020600001547fe15335496cb6f5b595519034ab65939ed2ce2a99699cf88afdf84302b92f128660008084815260200190815260200160002060010160009054906101000a900473ffffffffffffffffffffffffffffffffffffffff166000808581526020019081526020016000206002015460405161046e929190610fac565b60405180910390a2505050565b60008383604051602001610490929190611105565b604051602081830303815290604052805190602001209050600115156001600083815260200190815260200160002060050160009054906101000a900460ff161515146104dc57600080fd5b81156105145760018060008381526020019081526020016000206003016000828254610508919061113a565b92505081905550610542565b6001806000838152602001908152602001600020600401600082825461053a919061113a565b925050819055505b807f20b001df04f602d922b6cd273995996ad5796eeeb24995d076b5c52228c255b360016000848152602001908152602001600020600001546001600085815260200190815260200160002060010160009054906101000a900473ffffffffffffffffffffffffffffffffffffffff16600160008681526020019081526020016000206002015460016000878152602001908152602001600020600301546001600088815260200190815260200160002060040154604051610608959493929190611051565b60405180910390a250505050565b6000828260405160200161062b929190611105565b604051602081830303815290604052805190602001209050600115156001600083815260200190815260200160002060050160009054906101000a900460ff1615151461067757600080fd5b6000600160008381526020019081526020016000206002018190555061069d8383610830565b505050565b600084846040516020016106b7929190611105565b604051602081830303815290604052805190602001209050600083836040516020016106e4929190611105565b6040516020818303038152906040528051906020012090506000339050600015156001600085815260200190815260200160002060050160009054906101000a900460ff1615151461073557600080fd5b81600080858152602001908152602001600020600001819055508060008085815260200190815260200160002060010160006101000a81548173ffffffffffffffffffffffffffffffffffffffff021916908373ffffffffffffffffffffffffffffffffffffffff160217905550600080600085815260200190815260200160002060020181905550600160008085815260200190815260200160002060030160006101000a81548160ff021916908315150217905550817f7a04d71786f15d50123c438068b20585c740f604161e021c507acd774a8d1e6182600060405161081f929190610f83565b60405180910390a250505050505050565b60008282604051602001610845929190611105565b604051602081830303815290604052805190602001209050600060016000838152602001908152602001600020600201541461088057600080fd5b600115156001600083815260200190815260200160002060050160009054906101000a900460ff161515146108b457600080fd5b60006001600083815260200190815260200160002060050160006101000a81548160ff021916908315150217905550807f12c9f69700a7a7e953a83c115270d84c5ceecbc3e1207ff51b82a18da8ad1bc460016000848152602001908152602001600020600001546001600085815260200190815260200160002060010160009054906101000a900473ffffffffffffffffffffffffffffffffffffffff1660016000868152602001908152602001600020600301546001600087815260200190815260200160002060040154604051610991949392919061100c565b60405180910390a2505050565b600080600080600080600088886040516020016109bc929190611105565b604051602081830303815290604052805190602001209050600115156001600083815260200190815260200160002060050160009054906101000a900460ff16151514610a0857600080fd5b8060016000838152602001908152602001600020600001546001600084815260200190815260200160002060010160009054906101000a900473ffffffffffffffffffffffffffffffffffffffff16600160008581526020019081526020016000206002015460016000868152602001908152602001600020600301546001600087815260200190815260200160002060040154965096509650965096509650509295509295509295565b60008484604051602001610ac8929190611105565b604051602081830303815290604052805190602001209050600115156001600083815260200190815260200160002060050160009054906101000a900460ff16151514610b1457600080fd5b600060016000838152602001908152602001600020600201541415610b4257610b3d8585610830565b610c98565b60018060008381526020019081526020016000206002016000828254610b689190611190565b9250508190555082600160008381526020019081526020016000206003016000828254610b95919061113a565b9250508190555081600160008381526020019081526020016000206004016000828254610bc2919061113a565b92505081905550807f20b001df04f602d922b6cd273995996ad5796eeeb24995d076b5c52228c255b360016000848152602001908152602001600020600001546001600085815260200190815260200160002060010160009054906101000a900473ffffffffffffffffffffffffffffffffffffffff16600160008681526020019081526020016000206002015460016000878152602001908152602001600020600301546001600088815260200190815260200160002060040154604051610c8f959493929190611051565b60405180910390a25b5050505050565b600081359050610cae81611277565b92915050565b60008083601f840112610cc657600080fd5b8235905067ffffffffffffffff811115610cdf57600080fd5b602083019150836001820283011115610cf757600080fd5b9250929050565b600081359050610d0d8161128e565b92915050565b60008060208385031215610d2657600080fd5b600083013567ffffffffffffffff811115610d4057600080fd5b610d4c85828601610cb4565b92509250509250929050565b600080600060408486031215610d6d57600080fd5b600084013567ffffffffffffffff811115610d8757600080fd5b610d9386828701610cb4565b93509350506020610da686828701610c9f565b9150509250925092565b60008060008060408587031215610dc657600080fd5b600085013567ffffffffffffffff811115610de057600080fd5b610dec87828801610cb4565b9450945050602085013567ffffffffffffffff811115610e0b57600080fd5b610e1787828801610cb4565b925092505092959194509250565b600080600080600060608688031215610e3d57600080fd5b600086013567ffffffffffffffff811115610e5757600080fd5b610e6388828901610cb4565b9550955050602086013567ffffffffffffffff811115610e8257600080fd5b610e8e88828901610cb4565b93509350506040610ea188828901610cfe565b9150509295509295909350565b60008060008060608587031215610ec457600080fd5b600085013567ffffffffffffffff811115610ede57600080fd5b610eea87828801610cb4565b94509450506020610efd87828801610cfe565b9250506040610f0e87828801610cfe565b91505092959194509250565b610f23816111c4565b82525050565b610f32816111e2565b82525050565b610f4181611216565b82525050565b6000610f538385611129565b9350610f60838584611228565b610f6983611266565b840190509392505050565b610f7d8161120c565b82525050565b6000604082019050610f986000830185610f1a565b610fa56020830184610f38565b9392505050565b6000604082019050610fc16000830185610f1a565b610fce6020830184610f74565b9392505050565b6000606082019050610fea6000830186610f29565b610ff76020830185610f1a565b6110046040830184610f74565b949350505050565b60006080820190506110216000830187610f29565b61102e6020830186610f1a565b61103b6040830185610f74565b6110486060830184610f74565b95945050505050565b600060a0820190506110666000830188610f29565b6110736020830187610f1a565b6110806040830186610f74565b61108d6060830185610f74565b61109a6080830184610f74565b9695505050505050565b600060c0820190506110b96000830189610f29565b6110c66020830188610f29565b6110d36040830187610f1a565b6110e06060830186610f74565b6110ed6080830185610f74565b6110fa60a0830184610f74565b979650505050505050565b60006020820190508181036000830152611120818486610f47565b90509392505050565b600082825260208201905092915050565b60006111458261120c565b91506111508361120c565b9250827fffffffffffffffffffffffffffffffffffffffffffffffffffffffffffffffff0382111561118557611184611237565b5b828201905092915050565b600061119b8261120c565b91506111a68361120c565b9250828210156111b9576111b8611237565b5b828203905092915050565b60006111cf826111ec565b9050919050565b60008115159050919050565b6000819050919050565b600073ffffffffffffffffffffffffffffffffffffffff82169050919050565b6000819050919050565b60006112218261120c565b9050919050565b82818337600083830152505050565b7f4e487b7100000000000000000000000000000000000000000000000000000000600052601160045260246000fd5b6000601f19601f8301169050919050565b611280816111d6565b811461128b57600080fd5b50565b6112978161120c565b81146112a257600080fd5b5056fea264697066735822122074a69bd47bc1b14d83e19fdc0448ffe68059b82f0ca97d30d17f96fff29c018764736f6c63430008040033",
  "linkReferences": {},
  "deployedLinkReferences": {}
}