{"contracts/DAO.sol":{"DAO":{"abi":[{"inputs":[],"stateMutability":"nonpayable","type":"constructor"},{"anonymous":false,"inputs":[{"indexed":true,"internalType":"bytes32","name":"_proposalId","type":"bytes32"},{"indexed":false,"internalType":"bytes32","name":"_contentId","type":"bytes32"},{"indexed":false,"internalType":"address","name":"_owner","type":"address"},{"indexed":false,"internalType":"uint256","name":"_remainingDays","type":"uint256"}],"name":"proposalCreated","type":"event"},{"anonymous":false,"inputs":[{"indexed":true,"internalType":"bytes32","name":"_proposalId","type":"bytes32"},{"indexed":false,"internalType":"bytes32","name":"_contentId","type":"bytes32"},{"indexed":false,"internalType":"address","name":"_owner","type":"address"},{"indexed":false,"internalType":"uint256","name":"_finalUpVotes","type":"uint256"},{"indexed":false,"internalType":"uint256","name":"_finalDownVotes","type":"uint256"}],"name":"proposalFinished","type":"event"},{"anonymous":false,"inputs":[{"indexed":true,"internalType":"bytes32","name":"_proposalId","type":"bytes32"},{"indexed":false,"internalType":"bytes32","name":"_contentId","type":"bytes32"},{"indexed":false,"internalType":"address","name":"_owner","type":"address"},{"indexed":false,"internalType":"uint256","name":"_remainingDays","type":"uint256"},{"indexed":false,"internalType":"uint256","name":"_upVotes","type":"uint256"},{"indexed":false,"internalType":"uint256","name":"_downVotes","type":"uint256"}],"name":"proposalUpdated","type":"event"},{"inputs":[{"internalType":"string","name":"_proposalUri","type":"string"}],"name":"closeProposal","outputs":[],"stateMutability":"nonpayable","type":"function"},{"inputs":[{"internalType":"string","name":"_proposalUri","type":"string"},{"internalType":"string","name":"_contentUri","type":"string"},{"internalType":"uint256","name":"_remainingDays","type":"uint256"}],"name":"openProposal","outputs":[],"stateMutability":"nonpayable","type":"function"},{"inputs":[{"internalType":"string","name":"_proposalUri","type":"string"},{"internalType":"uint256","name":"_upVotes","type":"uint256"},{"internalType":"uint256","name":"_downVotes","type":"uint256"}],"name":"updateProposal","outputs":[],"stateMutability":"nonpayable","type":"function"}],"evm":{"bytecode":{"linkReferences":{},"object":"608060405234801561001057600080fd5b506109dd806100206000396000f3fe608060405234801561001057600080fd5b50600436106100415760003560e01c806324d25d1c14610046578063a9bb2dea14610062578063fd2c6b521461007e575b600080fd5b610060600480360381019061005b919061061e565b61009a565b005b61007c600480360381019061007791906105d9565b61025e565b005b610098600480360381019061009391906106a7565b610397565b005b6000339050600086866040516020016100b492919061083c565b604051602081830303815290604052805190602001209050600085856040516020016100e192919061083c565b6040516020818303038152906040528051906020012090506000151560008084815260200190815260200160002060050160009054906101000a900460ff1615151461012c57600080fd5b8260008084815260200190815260200160002060000160006101000a81548173ffffffffffffffffffffffffffffffffffffffff021916908373ffffffffffffffffffffffffffffffffffffffff16021790555080600080848152602001908152602001600020600101819055508360008084815260200190815260200160002060020181905550600080600084815260200190815260200160002060030181905550600080600084815260200190815260200160002060040181905550600160008084815260200190815260200160002060050160006101000a81548160ff021916908315150217905550817f4c674aaf9afd182f72ce821cbf174a9493f0c43f1181bd93e0c7d7ee657c3ba982858760405161024c9392919061076d565b60405180910390a25050505050505050565b6000828260405160200161027392919061083c565b604051602081830303815290604052805190602001209050600080600083815260200190815260200160002060020154146102ad57600080fd5b6001151560008083815260200190815260200160002060050160009054906101000a900460ff161515146102e057600080fd5b807f12c9f69700a7a7e953a83c115270d84c5ceecbc3e1207ff51b82a18da8ad1bc46000808481526020019081526020016000206001015460008085815260200190815260200160002060000160009054906101000a900473ffffffffffffffffffffffffffffffffffffffff16600080868152602001908152602001600020600301546000808781526020019081526020016000206004015460405161038a94939291906107a4565b60405180910390a2505050565b600084846040516020016103ac92919061083c565b6040516020818303038152906040528051906020012090506001151560008083815260200190815260200160002060050160009054906101000a900460ff161515146103f757600080fd5b60008060008381526020019081526020016000206002015414156104245761041f858561025e565b610573565b6001600080838152602001908152602001600020600201600082825461044a91906108c7565b925050819055508260008083815260200190815260200160002060030160008282546104769190610871565b925050819055508160008083815260200190815260200160002060040160008282546104a29190610871565b92505081905550807f0f77370bbcee1eb5ccb862ca63f72ac1d18ebc5ab29a0fb83c1e3c612d9ba4856000808481526020019081526020016000206001015460008085815260200190815260200160002060000160009054906101000a900473ffffffffffffffffffffffffffffffffffffffff1660008086815260200190815260200160002060020154600080878152602001908152602001600020600301546000808881526020019081526020016000206004015460405161056a9594939291906107e9565b60405180910390a25b5050505050565b60008083601f84011261058c57600080fd5b8235905067ffffffffffffffff8111156105a557600080fd5b6020830191508360018202830111156105bd57600080fd5b9250929050565b6000813590506105d381610990565b92915050565b600080602083850312156105ec57600080fd5b600083013567ffffffffffffffff81111561060657600080fd5b6106128582860161057a565b92509250509250929050565b60008060008060006060868803121561063657600080fd5b600086013567ffffffffffffffff81111561065057600080fd5b61065c8882890161057a565b9550955050602086013567ffffffffffffffff81111561067b57600080fd5b6106878882890161057a565b9350935050604061069a888289016105c4565b9150509295509295909350565b600080600080606085870312156106bd57600080fd5b600085013567ffffffffffffffff8111156106d757600080fd5b6106e38782880161057a565b945094505060206106f6878288016105c4565b9250506040610707878288016105c4565b91505092959194509250565b61071c816108fb565b82525050565b61072b8161090d565b82525050565b600061073d8385610860565b935061074a838584610941565b6107538361097f565b840190509392505050565b61076781610937565b82525050565b60006060820190506107826000830186610722565b61078f6020830185610713565b61079c604083018461075e565b949350505050565b60006080820190506107b96000830187610722565b6107c66020830186610713565b6107d3604083018561075e565b6107e0606083018461075e565b95945050505050565b600060a0820190506107fe6000830188610722565b61080b6020830187610713565b610818604083018661075e565b610825606083018561075e565b610832608083018461075e565b9695505050505050565b60006020820190508181036000830152610857818486610731565b90509392505050565b600082825260208201905092915050565b600061087c82610937565b915061088783610937565b9250827fffffffffffffffffffffffffffffffffffffffffffffffffffffffffffffffff038211156108bc576108bb610950565b5b828201905092915050565b60006108d282610937565b91506108dd83610937565b9250828210156108f0576108ef610950565b5b828203905092915050565b600061090682610917565b9050919050565b6000819050919050565b600073ffffffffffffffffffffffffffffffffffffffff82169050919050565b6000819050919050565b82818337600083830152505050565b7f4e487b7100000000000000000000000000000000000000000000000000000000600052601160045260246000fd5b6000601f19601f8301169050919050565b61099981610937565b81146109a457600080fd5b5056fea26469706673582212204e8156b0e44975052472ee9bc1ad6fccdab95a6f7234e87e40c34fcf21559adf64736f6c63430008040033","opcodes":"PUSH1 0x80 PUSH1 0x40 MSTORE CALLVALUE DUP1 ISZERO PUSH2 0x10 JUMPI PUSH1 0x0 DUP1 REVERT JUMPDEST POP PUSH2 0x9DD DUP1 PUSH2 0x20 PUSH1 0x0 CODECOPY PUSH1 0x0 RETURN INVALID PUSH1 0x80 PUSH1 0x40 MSTORE CALLVALUE DUP1 ISZERO PUSH2 0x10 JUMPI PUSH1 0x0 DUP1 REVERT JUMPDEST POP PUSH1 0x4 CALLDATASIZE LT PUSH2 0x41 JUMPI PUSH1 0x0 CALLDATALOAD PUSH1 0xE0 SHR DUP1 PUSH4 0x24D25D1C EQ PUSH2 0x46 JUMPI DUP1 PUSH4 0xA9BB2DEA EQ PUSH2 0x62 JUMPI DUP1 PUSH4 0xFD2C6B52 EQ PUSH2 0x7E JUMPI JUMPDEST PUSH1 0x0 DUP1 REVERT JUMPDEST PUSH2 0x60 PUSH1 0x4 DUP1 CALLDATASIZE SUB DUP2 ADD SWAP1 PUSH2 0x5B SWAP2 SWAP1 PUSH2 0x61E JUMP JUMPDEST PUSH2 0x9A JUMP JUMPDEST STOP JUMPDEST PUSH2 0x7C PUSH1 0x4 DUP1 CALLDATASIZE SUB DUP2 ADD SWAP1 PUSH2 0x77 SWAP2 SWAP1 PUSH2 0x5D9 JUMP JUMPDEST PUSH2 0x25E JUMP JUMPDEST STOP JUMPDEST PUSH2 0x98 PUSH1 0x4 DUP1 CALLDATASIZE SUB DUP2 ADD SWAP1 PUSH2 0x93 SWAP2 SWAP1 PUSH2 0x6A7 JUMP JUMPDEST PUSH2 0x397 JUMP JUMPDEST STOP JUMPDEST PUSH1 0x0 CALLER SWAP1 POP PUSH1 0x0 DUP7 DUP7 PUSH1 0x40 MLOAD PUSH1 0x20 ADD PUSH2 0xB4 SWAP3 SWAP2 SWAP1 PUSH2 0x83C JUMP JUMPDEST PUSH1 0x40 MLOAD PUSH1 0x20 DUP2 DUP4 SUB SUB DUP2 MSTORE SWAP1 PUSH1 0x40 MSTORE DUP1 MLOAD SWAP1 PUSH1 0x20 ADD KECCAK256 SWAP1 POP PUSH1 0x0 DUP6 DUP6 PUSH1 0x40 MLOAD PUSH1 0x20 ADD PUSH2 0xE1 SWAP3 SWAP2 SWAP1 PUSH2 0x83C JUMP JUMPDEST PUSH1 0x40 MLOAD PUSH1 0x20 DUP2 DUP4 SUB SUB DUP2 MSTORE SWAP1 PUSH1 0x40 MSTORE DUP1 MLOAD SWAP1 PUSH1 0x20 ADD KECCAK256 SWAP1 POP PUSH1 0x0 ISZERO ISZERO PUSH1 0x0 DUP1 DUP5 DUP2 MSTORE PUSH1 0x20 ADD SWAP1 DUP2 MSTORE PUSH1 0x20 ADD PUSH1 0x0 KECCAK256 PUSH1 0x5 ADD PUSH1 0x0 SWAP1 SLOAD SWAP1 PUSH2 0x100 EXP SWAP1 DIV PUSH1 0xFF AND ISZERO ISZERO EQ PUSH2 0x12C JUMPI PUSH1 0x0 DUP1 REVERT JUMPDEST DUP3 PUSH1 0x0 DUP1 DUP5 DUP2 MSTORE PUSH1 0x20 ADD SWAP1 DUP2 MSTORE PUSH1 0x20 ADD PUSH1 0x0 KECCAK256 PUSH1 0x0 ADD PUSH1 0x0 PUSH2 0x100 EXP DUP2 SLOAD DUP2 PUSH20 0xFFFFFFFFFFFFFFFFFFFFFFFFFFFFFFFFFFFFFFFF MUL NOT AND SWAP1 DUP4 PUSH20 0xFFFFFFFFFFFFFFFFFFFFFFFFFFFFFFFFFFFFFFFF AND MUL OR SWAP1 SSTORE POP DUP1 PUSH1 0x0 DUP1 DUP5 DUP2 MSTORE PUSH1 0x20 ADD SWAP1 DUP2 MSTORE PUSH1 0x20 ADD PUSH1 0x0 KECCAK256 PUSH1 0x1 ADD DUP2 SWAP1 SSTORE POP DUP4 PUSH1 0x0 DUP1 DUP5 DUP2 MSTORE PUSH1 0x20 ADD SWAP1 DUP2 MSTORE PUSH1 0x20 ADD PUSH1 0x0 KECCAK256 PUSH1 0x2 ADD DUP2 SWAP1 SSTORE POP PUSH1 0x0 DUP1 PUSH1 0x0 DUP5 DUP2 MSTORE PUSH1 0x20 ADD SWAP1 DUP2 MSTORE PUSH1 0x20 ADD PUSH1 0x0 KECCAK256 PUSH1 0x3 ADD DUP2 SWAP1 SSTORE POP PUSH1 0x0 DUP1 PUSH1 0x0 DUP5 DUP2 MSTORE PUSH1 0x20 ADD SWAP1 DUP2 MSTORE PUSH1 0x20 ADD PUSH1 0x0 KECCAK256 PUSH1 0x4 ADD DUP2 SWAP1 SSTORE POP PUSH1 0x1 PUSH1 0x0 DUP1 DUP5 DUP2 MSTORE PUSH1 0x20 ADD SWAP1 DUP2 MSTORE PUSH1 0x20 ADD PUSH1 0x0 KECCAK256 PUSH1 0x5 ADD PUSH1 0x0 PUSH2 0x100 EXP DUP2 SLOAD DUP2 PUSH1 0xFF MUL NOT AND SWAP1 DUP4 ISZERO ISZERO MUL OR SWAP1 SSTORE POP DUP2 PUSH32 0x4C674AAF9AFD182F72CE821CBF174A9493F0C43F1181BD93E0C7D7EE657C3BA9 DUP3 DUP6 DUP8 PUSH1 0x40 MLOAD PUSH2 0x24C SWAP4 SWAP3 SWAP2 SWAP1 PUSH2 0x76D JUMP JUMPDEST PUSH1 0x40 MLOAD DUP1 SWAP2 SUB SWAP1 LOG2 POP POP POP POP POP POP POP POP JUMP JUMPDEST PUSH1 0x0 DUP3 DUP3 PUSH1 0x40 MLOAD PUSH1 0x20 ADD PUSH2 0x273 SWAP3 SWAP2 SWAP1 PUSH2 0x83C JUMP JUMPDEST PUSH1 0x40 MLOAD PUSH1 0x20 DUP2 DUP4 SUB SUB DUP2 MSTORE SWAP1 PUSH1 0x40 MSTORE DUP1 MLOAD SWAP1 PUSH1 0x20 ADD KECCAK256 SWAP1 POP PUSH1 0x0 DUP1 PUSH1 0x0 DUP4 DUP2 MSTORE PUSH1 0x20 ADD SWAP1 DUP2 MSTORE PUSH1 0x20 ADD PUSH1 0x0 KECCAK256 PUSH1 0x2 ADD SLOAD EQ PUSH2 0x2AD JUMPI PUSH1 0x0 DUP1 REVERT JUMPDEST PUSH1 0x1 ISZERO ISZERO PUSH1 0x0 DUP1 DUP4 DUP2 MSTORE PUSH1 0x20 ADD SWAP1 DUP2 MSTORE PUSH1 0x20 ADD PUSH1 0x0 KECCAK256 PUSH1 0x5 ADD PUSH1 0x0 SWAP1 SLOAD SWAP1 PUSH2 0x100 EXP SWAP1 DIV PUSH1 0xFF AND ISZERO ISZERO EQ PUSH2 0x2E0 JUMPI PUSH1 0x0 DUP1 REVERT JUMPDEST DUP1 PUSH32 0x12C9F69700A7A7E953A83C115270D84C5CEECBC3E1207FF51B82A18DA8AD1BC4 PUSH1 0x0 DUP1 DUP5 DUP2 MSTORE PUSH1 0x20 ADD SWAP1 DUP2 MSTORE PUSH1 0x20 ADD PUSH1 0x0 KECCAK256 PUSH1 0x1 ADD SLOAD PUSH1 0x0 DUP1 DUP6 DUP2 MSTORE PUSH1 0x20 ADD SWAP1 DUP2 MSTORE PUSH1 0x20 ADD PUSH1 0x0 KECCAK256 PUSH1 0x0 ADD PUSH1 0x0 SWAP1 SLOAD SWAP1 PUSH2 0x100 EXP SWAP1 DIV PUSH20 0xFFFFFFFFFFFFFFFFFFFFFFFFFFFFFFFFFFFFFFFF AND PUSH1 0x0 DUP1 DUP7 DUP2 MSTORE PUSH1 0x20 ADD SWAP1 DUP2 MSTORE PUSH1 0x20 ADD PUSH1 0x0 KECCAK256 PUSH1 0x3 ADD SLOAD PUSH1 0x0 DUP1 DUP8 DUP2 MSTORE PUSH1 0x20 ADD SWAP1 DUP2 MSTORE PUSH1 0x20 ADD PUSH1 0x0 KECCAK256 PUSH1 0x4 ADD SLOAD PUSH1 0x40 MLOAD PUSH2 0x38A SWAP5 SWAP4 SWAP3 SWAP2 SWAP1 PUSH2 0x7A4 JUMP JUMPDEST PUSH1 0x40 MLOAD DUP1 SWAP2 SUB SWAP1 LOG2 POP POP POP JUMP JUMPDEST PUSH1 0x0 DUP5 DUP5 PUSH1 0x40 MLOAD PUSH1 0x20 ADD PUSH2 0x3AC SWAP3 SWAP2 SWAP1 PUSH2 0x83C JUMP JUMPDEST PUSH1 0x40 MLOAD PUSH1 0x20 DUP2 DUP4 SUB SUB DUP2 MSTORE SWAP1 PUSH1 0x40 MSTORE DUP1 MLOAD SWAP1 PUSH1 0x20 ADD KECCAK256 SWAP1 POP PUSH1 0x1 ISZERO ISZERO PUSH1 0x0 DUP1 DUP4 DUP2 MSTORE PUSH1 0x20 ADD SWAP1 DUP2 MSTORE PUSH1 0x20 ADD PUSH1 0x0 KECCAK256 PUSH1 0x5 ADD PUSH1 0x0 SWAP1 SLOAD SWAP1 PUSH2 0x100 EXP SWAP1 DIV PUSH1 0xFF AND ISZERO ISZERO EQ PUSH2 0x3F7 JUMPI PUSH1 0x0 DUP1 REVERT JUMPDEST PUSH1 0x0 DUP1 PUSH1 0x0 DUP4 DUP2 MSTORE PUSH1 0x20 ADD SWAP1 DUP2 MSTORE PUSH1 0x20 ADD PUSH1 0x0 KECCAK256 PUSH1 0x2 ADD SLOAD EQ ISZERO PUSH2 0x424 JUMPI PUSH2 0x41F DUP6 DUP6 PUSH2 0x25E JUMP JUMPDEST PUSH2 0x573 JUMP JUMPDEST PUSH1 0x1 PUSH1 0x0 DUP1 DUP4 DUP2 MSTORE PUSH1 0x20 ADD SWAP1 DUP2 MSTORE PUSH1 0x20 ADD PUSH1 0x0 KECCAK256 PUSH1 0x2 ADD PUSH1 0x0 DUP3 DUP3 SLOAD PUSH2 0x44A SWAP2 SWAP1 PUSH2 0x8C7 JUMP JUMPDEST SWAP3 POP POP DUP2 SWAP1 SSTORE POP DUP3 PUSH1 0x0 DUP1 DUP4 DUP2 MSTORE PUSH1 0x20 ADD SWAP1 DUP2 MSTORE PUSH1 0x20 ADD PUSH1 0x0 KECCAK256 PUSH1 0x3 ADD PUSH1 0x0 DUP3 DUP3 SLOAD PUSH2 0x476 SWAP2 SWAP1 PUSH2 0x871 JUMP JUMPDEST SWAP3 POP POP DUP2 SWAP1 SSTORE POP DUP2 PUSH1 0x0 DUP1 DUP4 DUP2 MSTORE PUSH1 0x20 ADD SWAP1 DUP2 MSTORE PUSH1 0x20 ADD PUSH1 0x0 KECCAK256 PUSH1 0x4 ADD PUSH1 0x0 DUP3 DUP3 SLOAD PUSH2 0x4A2 SWAP2 SWAP1 PUSH2 0x871 JUMP JUMPDEST SWAP3 POP POP DUP2 SWAP1 SSTORE POP DUP1 PUSH32 0xF77370BBCEE1EB5CCB862CA63F72AC1D18EBC5AB29A0FB83C1E3C612D9BA485 PUSH1 0x0 DUP1 DUP5 DUP2 MSTORE PUSH1 0x20 ADD SWAP1 DUP2 MSTORE PUSH1 0x20 ADD PUSH1 0x0 KECCAK256 PUSH1 0x1 ADD SLOAD PUSH1 0x0 DUP1 DUP6 DUP2 MSTORE PUSH1 0x20 ADD SWAP1 DUP2 MSTORE PUSH1 0x20 ADD PUSH1 0x0 KECCAK256 PUSH1 0x0 ADD PUSH1 0x0 SWAP1 SLOAD SWAP1 PUSH2 0x100 EXP SWAP1 DIV PUSH20 0xFFFFFFFFFFFFFFFFFFFFFFFFFFFFFFFFFFFFFFFF AND PUSH1 0x0 DUP1 DUP7 DUP2 MSTORE PUSH1 0x20 ADD SWAP1 DUP2 MSTORE PUSH1 0x20 ADD PUSH1 0x0 KECCAK256 PUSH1 0x2 ADD SLOAD PUSH1 0x0 DUP1 DUP8 DUP2 MSTORE PUSH1 0x20 ADD SWAP1 DUP2 MSTORE PUSH1 0x20 ADD PUSH1 0x0 KECCAK256 PUSH1 0x3 ADD SLOAD PUSH1 0x0 DUP1 DUP9 DUP2 MSTORE PUSH1 0x20 ADD SWAP1 DUP2 MSTORE PUSH1 0x20 ADD PUSH1 0x0 KECCAK256 PUSH1 0x4 ADD SLOAD PUSH1 0x40 MLOAD PUSH2 0x56A SWAP6 SWAP5 SWAP4 SWAP3 SWAP2 SWAP1 PUSH2 0x7E9 JUMP JUMPDEST PUSH1 0x40 MLOAD DUP1 SWAP2 SUB SWAP1 LOG2 JUMPDEST POP POP POP POP POP JUMP JUMPDEST PUSH1 0x0 DUP1 DUP4 PUSH1 0x1F DUP5 ADD SLT PUSH2 0x58C JUMPI PUSH1 0x0 DUP1 REVERT JUMPDEST DUP3 CALLDATALOAD SWAP1 POP PUSH8 0xFFFFFFFFFFFFFFFF DUP2 GT ISZERO PUSH2 0x5A5 JUMPI PUSH1 0x0 DUP1 REVERT JUMPDEST PUSH1 0x20 DUP4 ADD SWAP2 POP DUP4 PUSH1 0x1 DUP3 MUL DUP4 ADD GT ISZERO PUSH2 0x5BD JUMPI PUSH1 0x0 DUP1 REVERT JUMPDEST SWAP3 POP SWAP3 SWAP1 POP JUMP JUMPDEST PUSH1 0x0 DUP2 CALLDATALOAD SWAP1 POP PUSH2 0x5D3 DUP2 PUSH2 0x990 JUMP JUMPDEST SWAP3 SWAP2 POP POP JUMP JUMPDEST PUSH1 0x0 DUP1 PUSH1 0x20 DUP4 DUP6 SUB SLT ISZERO PUSH2 0x5EC JUMPI PUSH1 0x0 DUP1 REVERT JUMPDEST PUSH1 0x0 DUP4 ADD CALLDATALOAD PUSH8 0xFFFFFFFFFFFFFFFF DUP2 GT ISZERO PUSH2 0x606 JUMPI PUSH1 0x0 DUP1 REVERT JUMPDEST PUSH2 0x612 DUP6 DUP3 DUP7 ADD PUSH2 0x57A JUMP JUMPDEST SWAP3 POP SWAP3 POP POP SWAP3 POP SWAP3 SWAP1 POP JUMP JUMPDEST PUSH1 0x0 DUP1 PUSH1 0x0 DUP1 PUSH1 0x0 PUSH1 0x60 DUP7 DUP9 SUB SLT ISZERO PUSH2 0x636 JUMPI PUSH1 0x0 DUP1 REVERT JUMPDEST PUSH1 0x0 DUP7 ADD CALLDATALOAD PUSH8 0xFFFFFFFFFFFFFFFF DUP2 GT ISZERO PUSH2 0x650 JUMPI PUSH1 0x0 DUP1 REVERT JUMPDEST PUSH2 0x65C DUP9 DUP3 DUP10 ADD PUSH2 0x57A JUMP JUMPDEST SWAP6 POP SWAP6 POP POP PUSH1 0x20 DUP7 ADD CALLDATALOAD PUSH8 0xFFFFFFFFFFFFFFFF DUP2 GT ISZERO PUSH2 0x67B JUMPI PUSH1 0x0 DUP1 REVERT JUMPDEST PUSH2 0x687 DUP9 DUP3 DUP10 ADD PUSH2 0x57A JUMP JUMPDEST SWAP4 POP SWAP4 POP POP PUSH1 0x40 PUSH2 0x69A DUP9 DUP3 DUP10 ADD PUSH2 0x5C4 JUMP JUMPDEST SWAP2 POP POP SWAP3 SWAP6 POP SWAP3 SWAP6 SWAP1 SWAP4 POP JUMP JUMPDEST PUSH1 0x0 DUP1 PUSH1 0x0 DUP1 PUSH1 0x60 DUP6 DUP8 SUB SLT ISZERO PUSH2 0x6BD JUMPI PUSH1 0x0 DUP1 REVERT JUMPDEST PUSH1 0x0 DUP6 ADD CALLDATALOAD PUSH8 0xFFFFFFFFFFFFFFFF DUP2 GT ISZERO PUSH2 0x6D7 JUMPI PUSH1 0x0 DUP1 REVERT JUMPDEST PUSH2 0x6E3 DUP8 DUP3 DUP9 ADD PUSH2 0x57A JUMP JUMPDEST SWAP5 POP SWAP5 POP POP PUSH1 0x20 PUSH2 0x6F6 DUP8 DUP3 DUP9 ADD PUSH2 0x5C4 JUMP JUMPDEST SWAP3 POP POP PUSH1 0x40 PUSH2 0x707 DUP8 DUP3 DUP9 ADD PUSH2 0x5C4 JUMP JUMPDEST SWAP2 POP POP SWAP3 SWAP6 SWAP2 SWAP5 POP SWAP3 POP JUMP JUMPDEST PUSH2 0x71C DUP2 PUSH2 0x8FB JUMP JUMPDEST DUP3 MSTORE POP POP JUMP JUMPDEST PUSH2 0x72B DUP2 PUSH2 0x90D JUMP JUMPDEST DUP3 MSTORE POP POP JUMP JUMPDEST PUSH1 0x0 PUSH2 0x73D DUP4 DUP6 PUSH2 0x860 JUMP JUMPDEST SWAP4 POP PUSH2 0x74A DUP4 DUP6 DUP5 PUSH2 0x941 JUMP JUMPDEST PUSH2 0x753 DUP4 PUSH2 0x97F JUMP JUMPDEST DUP5 ADD SWAP1 POP SWAP4 SWAP3 POP POP POP JUMP JUMPDEST PUSH2 0x767 DUP2 PUSH2 0x937 JUMP JUMPDEST DUP3 MSTORE POP POP JUMP JUMPDEST PUSH1 0x0 PUSH1 0x60 DUP3 ADD SWAP1 POP PUSH2 0x782 PUSH1 0x0 DUP4 ADD DUP7 PUSH2 0x722 JUMP JUMPDEST PUSH2 0x78F PUSH1 0x20 DUP4 ADD DUP6 PUSH2 0x713 JUMP JUMPDEST PUSH2 0x79C PUSH1 0x40 DUP4 ADD DUP5 PUSH2 0x75E JUMP JUMPDEST SWAP5 SWAP4 POP POP POP POP JUMP JUMPDEST PUSH1 0x0 PUSH1 0x80 DUP3 ADD SWAP1 POP PUSH2 0x7B9 PUSH1 0x0 DUP4 ADD DUP8 PUSH2 0x722 JUMP JUMPDEST PUSH2 0x7C6 PUSH1 0x20 DUP4 ADD DUP7 PUSH2 0x713 JUMP JUMPDEST PUSH2 0x7D3 PUSH1 0x40 DUP4 ADD DUP6 PUSH2 0x75E JUMP JUMPDEST PUSH2 0x7E0 PUSH1 0x60 DUP4 ADD DUP5 PUSH2 0x75E JUMP JUMPDEST SWAP6 SWAP5 POP POP POP POP POP JUMP JUMPDEST PUSH1 0x0 PUSH1 0xA0 DUP3 ADD SWAP1 POP PUSH2 0x7FE PUSH1 0x0 DUP4 ADD DUP9 PUSH2 0x722 JUMP JUMPDEST PUSH2 0x80B PUSH1 0x20 DUP4 ADD DUP8 PUSH2 0x713 JUMP JUMPDEST PUSH2 0x818 PUSH1 0x40 DUP4 ADD DUP7 PUSH2 0x75E JUMP JUMPDEST PUSH2 0x825 PUSH1 0x60 DUP4 ADD DUP6 PUSH2 0x75E JUMP JUMPDEST PUSH2 0x832 PUSH1 0x80 DUP4 ADD DUP5 PUSH2 0x75E JUMP JUMPDEST SWAP7 SWAP6 POP POP POP POP POP POP JUMP JUMPDEST PUSH1 0x0 PUSH1 0x20 DUP3 ADD SWAP1 POP DUP2 DUP2 SUB PUSH1 0x0 DUP4 ADD MSTORE PUSH2 0x857 DUP2 DUP5 DUP7 PUSH2 0x731 JUMP JUMPDEST SWAP1 POP SWAP4 SWAP3 POP POP POP JUMP JUMPDEST PUSH1 0x0 DUP3 DUP3 MSTORE PUSH1 0x20 DUP3 ADD SWAP1 POP SWAP3 SWAP2 POP POP JUMP JUMPDEST PUSH1 0x0 PUSH2 0x87C DUP3 PUSH2 0x937 JUMP JUMPDEST SWAP2 POP PUSH2 0x887 DUP4 PUSH2 0x937 JUMP JUMPDEST SWAP3 POP DUP3 PUSH32 0xFFFFFFFFFFFFFFFFFFFFFFFFFFFFFFFFFFFFFFFFFFFFFFFFFFFFFFFFFFFFFFFF SUB DUP3 GT ISZERO PUSH2 0x8BC JUMPI PUSH2 0x8BB PUSH2 0x950 JUMP JUMPDEST JUMPDEST DUP3 DUP3 ADD SWAP1 POP SWAP3 SWAP2 POP POP JUMP JUMPDEST PUSH1 0x0 PUSH2 0x8D2 DUP3 PUSH2 0x937 JUMP JUMPDEST SWAP2 POP PUSH2 0x8DD DUP4 PUSH2 0x937 JUMP JUMPDEST SWAP3 POP DUP3 DUP3 LT ISZERO PUSH2 0x8F0 JUMPI PUSH2 0x8EF PUSH2 0x950 JUMP JUMPDEST JUMPDEST DUP3 DUP3 SUB SWAP1 POP SWAP3 SWAP2 POP POP JUMP JUMPDEST PUSH1 0x0 PUSH2 0x906 DUP3 PUSH2 0x917 JUMP JUMPDEST SWAP1 POP SWAP2 SWAP1 POP JUMP JUMPDEST PUSH1 0x0 DUP2 SWAP1 POP SWAP2 SWAP1 POP JUMP JUMPDEST PUSH1 0x0 PUSH20 0xFFFFFFFFFFFFFFFFFFFFFFFFFFFFFFFFFFFFFFFF DUP3 AND SWAP1 POP SWAP2 SWAP1 POP JUMP JUMPDEST PUSH1 0x0 DUP2 SWAP1 POP SWAP2 SWAP1 POP JUMP JUMPDEST DUP3 DUP2 DUP4 CALLDATACOPY PUSH1 0x0 DUP4 DUP4 ADD MSTORE POP POP POP JUMP JUMPDEST PUSH32 0x4E487B7100000000000000000000000000000000000000000000000000000000 PUSH1 0x0 MSTORE PUSH1 0x11 PUSH1 0x4 MSTORE PUSH1 0x24 PUSH1 0x0 REVERT JUMPDEST PUSH1 0x0 PUSH1 0x1F NOT PUSH1 0x1F DUP4 ADD AND SWAP1 POP SWAP2 SWAP1 POP JUMP JUMPDEST PUSH2 0x999 DUP2 PUSH2 0x937 JUMP JUMPDEST DUP2 EQ PUSH2 0x9A4 JUMPI PUSH1 0x0 DUP1 REVERT JUMPDEST POP JUMP INVALID LOG2 PUSH5 0x6970667358 0x22 SLT KECCAK256 0x4E DUP2 JUMP 0xB0 0xE4 0x49 PUSH22 0x52472EE9BC1AD6FCCDAB95A6F7234E87E40C34FCF21 SSTORE SWAP11 0xDF PUSH5 0x736F6C6343 STOP ADDMOD DIV STOP CALLER "},"methodIdentifiers":{"closeProposal(string)":"a9bb2dea","openProposal(string,string,uint256)":"24d25d1c","updateProposal(string,uint256,uint256)":"fd2c6b52"}}}}}